:060000000A128A110C280F
:10000800FE00030EF0000A08F1000A128A11522DB0
:100018000A128A110F283F30A0000630A1005B3079
:10002800A2004F30A3006630A4006D30A5007D30DB
:10003800A6000730A7007F30A8006F30A900003065
:10004800AA0183010A128A112928B201B5010A12EC
:100058008A11A4250A128A110A128A1185250A1200
:100068008A110A128A11BF250A128A110A128A11E4
:1000780095250A128A110530F3008430F4000A121B
:100088008A1100250A128A113530F3008330F400F2
:100098000A128A1100250A128A11D130F30083301E
:1000A800F4000A128A1100250A128A116930F30035
:1000B8008330F4000A128A1100250A128A11353099
:1000C800F3008330F4000A128A1100250A128A11FB
:1000D8009D30F3008330F4000A128A1100250A12B9
:1000E8008A113530F3008330F4000A128A11002592
:1000F8000A128A110530F3008430F4000A128A11BA
:1001080000250A128A113230F3008330F4000A12F3
:100118008A1100250A128A11FF30880009118910F6
:100128000910851247220A128A112F250A128A11EC
:10013800023083120313B1004530B000A930AF007C
:10014800AF0BA428B00BA428B10BA4288312031367
:100158000915023083120313B1004530B000A930ED
:10016800AF00AF0BB528B00BB528B10BB52883127B
:1001780003138914023083120313B1004530B00011
:10018800A930AF00AF0BC628B00BC628B10BC628E4
:10019800831203130914023083120313B10045308C
:1001A800B000A930AF00AF0BD728B00BD728B10BE0
:1001B800D728831203138516023083120313B10064
:1001C8004530B000A930AF00AF0BE828B00BE828E5
:1001D800B10BE8288312031309118910091085123D
:1001E8000030F3008330F4000A128A1100250A1245
:1001F8008A11FF30F800F9010A128A11CA250A1279
:100208008A11F2000A30F301F400F5010A128A118A
:100218006C250A128A117308FB007208FA000A1288
:100228008A11BB240A128A117908B4007808B3002D
:10023800003034020A3003193302031C262909301E
:10024800B300B4013308203E8400831300088800FB
:100258003208AF00B00134083006031D35293308D1
:100268002F06031942293930F3008430F4000A12AA
:100278008A1100250A128A113308B2000618622969
:10028800343083120313B000F130AF00AF0B4A29AA
:10029800B00B4A2947220A128A112F250A128A11FD
:1002A8003130B500061C5629343083120313B000D0
:1002B800F130AF00AF0B5E29B00B5E298312031338
:1002C80086188429343083120313B000F130AF004C
:1002D800AF0B6C29B00B6C2947220A128A112F2503
:1002E8000A128A113230B500861C782934308312FC
:1002F8000313B000F130AF00AF0B8029B00B802999
:10030800831203130619A629343083120313B0008D
:10031800F130AF00AF0B8E29B00B8E2947220A129D
:100328008A112F250A128A113330B500061D9A2921
:10033800343083120313B000F130AF00AF0BA229A1
:10034800B00BA229831203138619C82934308312EB
:100358000313B000F130AF00AF0BB029B00BB029D8
:1003680047220A128A112F250A128A113430B50041
:10037800861DBC29343083120313B000F130AF005E
:10038800AF0BC429B00BC42935300A128A11B32522
:100398000A128A11003A031D372A3508031D372A25
:1003A800FD285230F3008430F4000A128A11002527
:1003B8000A128A110310091D0314031CE72983126A
:1003C80003130915452A831203130911452A6730B7
:1003D800F3008430F4000A128A1100250A128A11E7
:1003E8000310891C0314031CFD29831203138914A9
:1003F800452A831203138910452A7C30F300843080
:10040800F4000A128A1100250A128A110310091C25
:100418000314031C132A831203130914452A831295
:1004280003130910452A9130F3008430F4000A12AE
:100438008A1100250A128A110310851E0314031C51
:10044800292A831203138516452A8312031385125A
:10045800452AA630F3008430F4000A128A110025D8
:100468000A128A11452A3508313A0319D529033A5F
:100478000319EB29013A0319012A073A0319172A24
:100488002D2AB501FD281C30F2000130F300FA30A6
:10049800F400F5010800FF1B592A83137F188317FE
:1004A8000008840A0319FF0A08007F087F398A00B8
:0A04B8000408840A0319FF0A8200F9
:10060000503472346534733469346F346E34613409
:1006100020346C34613473342034543445344334DE
:100620004C344134533420346F34203465346E34C8
:10063000763469346134203475346E3420346E3449
:1006400075346D34653472346F34203464346534F9
:100650006C3420343134203461346C3420343434FC
:100660000D340A340D340A3400342A342034203452
:1006700020342034203420342034203420342034DA
:1006800020342034203420342034203420342034CA
:1006900020342034203420342034203420342034BA
:1006A00020342034203420342034203420342034AA
:1006B000203420342034203420342034203420349A
:1006C000203420342034203420342A340D340A34A9
:1006D00000342A3420342034563465347234733470
:1006E00069346F346E3420346434653420346634B5
:1006F000693472346D3477346134723465343A3429
:10070000203431342E343234203420342034203418
:100710002034203420342034203420342034203439
:100720002034203420342034203420342034203429
:1007300020342A340D340A3400342A34203420344E
:10074000453453344334553445344C3441342034E7
:1007500043345234493453345434493441344E349C
:10076000413420344534563441344E3447344534D2
:100770004C344934433441342034413452344734C6
:1007800045344E34543449344E34413420343234B8
:10079000303431343934203420342A340D340A349E
:1007A00000342A3420342034503472346F346734A7
:1007B000723461346D3461342034643465342034EF
:1007C000703472347534653462346134203470347A
:1007D000613472346134203470346C346134633485
:1007E00061342034643465342034643465347334C3
:1007F0006134723472346F346C346C346F3420343E
:1008000020342A340D340A3400342A342A342A3469
:100810002A342A342A342A342A342A342A342A34E8
:100820002A342A342A342A342A342A342A342A34D8
:100830002A342A342A342A342A342A342A342A34C8
:100840002A342A342A342A342A342A342A342A34B8
:100850002A342A342A342A342A342A342A342A34A8
:100860002A342A342A342A342A342A340D340A34D5
:1008700000342D342D34203444344934533450342E
:100880004C34413459342034613463347434753415
:1008900061346C3469347A34613464346F340D34C7
:1008A0000A3400342D342D34203454344534433448
:1008B00031342034503472346534733469346F34D5
:1008C0006E346134643461340D340A3400342D34B0
:1008D0002D342034543445344334323420345034AD
:1008E00072346534733469346F346E346134643413
:1008F00061340D340A3400342D342D342034543412
:1009000045344334333420345034723465347334D2
:1009100069346F346E346134643461340D340A34B4
:1009200000342D342D34203454344534433434349D
:100930002034503472346534733469346F346E3417
:100940006134643461340D340A3400342D342D3470
:1009500020345434653463346C34613420346E3460
:100960006F342034763461346C34693464346134E7
:100970000D340A340034AC01F91FC52CF809F9090B
:10098000F80A0319F90AAC01AC0AFB1FCE2CFA09CC
:10099000FB09FA0A0319FB0A0130AC06AD01AE01EE
:1009A000780879040319F32CAB01AB0AF91BDC2C92
:1009B0000310F80DF90DD52C0310AD0DAE0D79080F
:1009C0007B02031DE52C78087A02031CEF2C7808C3
:1009D000FA027908031CFB03FB022D140310F90C27
:1009E000F80CAB0BDC2C2C080319FB2CAD09AE0961
:1009F000AD0A0319AE0A2E08F9002D08F800080008
:100A0000F801F9011E250A128A114F220A128A11D1
:100A1000003A031908001E250A128A114F220A12F1
:100A20008A1118250A128A11F80A0319F90A022DE7
:100A3000F2000C1E192D720899000800780873073F
:100A4000F6007408F5000318F50AF81BF50375089D
:100A5000F70083120313FF00760884000800720871
:100A6000730403193C2D8312031310148E018F019C
:100A700073089600720895007408750403194E2DCA
:100A80000130F4020030031CF503F502C730F60014
:100A9000492DF60B482D4C2D4D2D3C2D8312031363
:100AA00010100800831203130C1D652D0C118E010C
:100AB0008F010310071C0314031C622D8312031300
:100AC0000714652D83120313071071088A00700E36
:100AD0008300FE0E7E0E0900F601F701721C762DD2
:100AE0007408F6070318F70A7508F7070310F40DE2
:100AF000F50D0310F30CF20C72087304031D6E2D38
:100B00007708F3007608F200080007138717181318
:100B10009816181218150317871119300313990026
:100B200083121813181698170800831607108312DB
:100B30008E018F01901010100B3097000C1183164E
:100B40000C150B178B1708008316031788018901F2
:100B50000313061486140615861509118910091049
:100B6000851288010800F200831203138C1E0034E2
:100B70008C12720884001A088313800001348316D3
:100B800005140317081403139F13C33083129F0522
:0E0B90001F1408009F149F18CB2D1E0808008C
:04400E00F1E0FFFFDF
:00000001FF
